:060000000A128A15AF2868
:10000800F300F201731C09280A280F287008F10070
:100018007108F2070F280310F00D0310F30CF30812
:10002800031D172818280628192872081B280800F5
:10003800831203135408F0005508F1005608F20023
:100048005B30D7005708F3000A128A15A2220A1259
:100058008A1183120313DC1F322833285C285408C2
:10006800F0005508F1005608F2000030F3000030A7
:10007800F4000030F5000A128A1589230A128A1141
:100088000318472848285228003083120313D40045
:100098008030D500BF30D600C328C3280030831273
:1000A8000313D4000030D5000030D600C328C3287D
:1000B80000305C02153003195B02031C64286528B4
:1000C8006628C3285408F8005508F9005608FA00AD
:1000D8000A128A15EF240A128A117B088312031365
:1000E800B4007A08B3007908B2007808B1000A129F
:1000F8008A15EC220A128A11831203133108D800D8
:100108003208D9003308DA005408F0005508F10025
:100118005608F2005808F3005908F4005A08F50088
:100128000A128A1589230A128A1103189C289D2805
:10013800BA28003083120313C7008030C800BF30CC
:10014800C9005808CA005908CB005A08CC000A123E
:100158008A11B2210A128A11831203134708D400A4
:100168004808D5004908D600C328C32883120313BA
:100178005808D4005908D5005A08D600C3280800E2
:10018800831203133708BD003808BE003908BF00C2
:1001980003103E0D3F0DC0004008C100C108031DFB
:1001A800D628D728DF280030B7000030B800003044
:1001B800B900B129B1293A08BD003B08BE003C0886
:1001C800BF0003103E0D3F0DC0004008C600C60822
:1001D800031DEF28F028F8280030B7000030B800D9
:1001E8000030B900B129B12946087B3EBD003D0861
:1001F800C1073708BD003808BE003908BF001030F5
:100208000310BF0CBE0CBD0CFF3E031D04293D08A6
:10021800C0004008C6003A08BD003B08BE003C08C4
:10022800BF0010300310BF0CBE0CBD0CFF3E031DF9
:1002380016293D08C0004008C6068030BD003D08AC
:10024800C605B817BB17FF30BA05FF30BB0500302D
:10025800BC050030C2000030C3000030C4000730C5
:10026800BD003D08C5003829371C3B293C294D29CC
:100278003A08C2073B08031103183B0A031945292A
:10028800C3073C08031103183C0A03194C29C40787
:100298004D2901300310B90CB80CB70CFF3E031DF3
:1002A8004E2901300310BA0DBB0DBC0DFF3E031DD6
:1002B80056290130C502031D62296329382964299A
:1002C8000930BD003D08C5006929371C6C296D2916
:1002D8007E293A08C2073B08031103183B0A031991
:1002E8007629C3073C08031103183C0A03197D2922
:1002F800C4077E2901300310B90CB80CB70CFF3EB7
:10030800031D7F2901300310C40CC30CC20CFF3E2F
:10031800031D87290130C502031D932994296929E2
:1003280095294208F0004308F1004408F20041080A
:10033800BD003D08F3004608BE003E08F4000A125E
:100348008A15F5230A128A11700883120313B7005D
:100358007108B8007208B900B129080083120313A4
:100368004708CD004808CE004908CF0003104E0DBD
:100378004F0DD0005008D3004A08CD004B08CE00DE
:100388004C08CF0003104E0D4F0DD0005008D2007E
:100398005308031DD029E129520853020318D5290F
:1003A800D629E9295303FF3A5207CD0019304D02E7
:1003B800031CDF29E029E929E1294A08C7004B087D
:1003C800C8004C08C900F72AF72A5208031DED296E
:1003D800FD29530852020318F229F329FE29520372
:1003E800FF3A5307CD0019304D02031CFC29FD29A3
:1003F800FE29F72A0630CD004D08D100C91F052A6D
:10040800062A072AD117CC1F0A2A0B2A0C2A5117A9
:10041800C817FF30C705FF30C8050030C905CB171E
:10042800FF30CA05FF30CB050030CC055208530217
:1004380003181F2A202A512A212A01300310CA0D25
:10044800CB0DCC0DFF3E031D222A0130D2025208EB
:1004580053060319302A312A492A0130D10251089A
:100468000739031D382A392A212A492A492A492ABB
:1004780001300310C90CC80CC70CFF3E031D3D2AF0
:100488000130CD004D08D307492A53085206031DF1
:100498004E2A4F2A3C2A882A882A530852020318CF
:1004A800562A572A882A582A01300310C70DC80D22
:1004B800C90DFF3E031D592A0130D30252085306C5
:1004C8000319672A682A802A0130D102510807399E
:1004D800031D6F2A702A582A802A802A802A013010
:1004E8000310CC0CCB0CCA0CFF3E031D742A013040
:1004F800CD004D08D207802A53085206031D852ACD
:10050800862A732A882A882AD11F8B2A8C2A9D2A10
:10051800FF30C706FF30C806FF30C9060130C707DD
:10052800003003180130C807003003180130C9072C
:100538009D2A511FA02AA12AB22AFF30CA06FF30DD
:10054800CB06FF30CC060130CA0700300318013053
:10055800CB07003003180130CC07B22AD101470875
:10056800CA07480803110318480A0319BC2ACB070D
:10057800490803110318490A0319C32ACC07CC1FD9
:10058800C62AC72ADB2AFF30CA06FF30CB06FF304F
:10059800CC060130CA07003003180130CB07003001
:1005A80003180130CC07D1010314D10DDB2A4A0806
:1005B800F0004B08F1004C08F2005308CD004D083C
:1005C800F3005108CE004E08F4000A128A15F523EC
:1005D8000A128A11700883120313C7007108C80031
:1005E8007208C900F72A080083160313B2012B0802
:1005F8002A042904031D012B022B272B0030F000AD
:100608000030F1000030F2002C08F3002D08F4004F
:100618002E08F5000A128A1589230A128A11031C6A
:10062800162B172B1D2B213083160313CE000030F9
:10063800CF00003083160313A9000030AA00003051
:10064800AB004C2C4C2C2E082D042C04031D2D2BF8
:100658002E2B362B0030A9008030AA003F30AB008B
:100668004C2C4C2C2908F0002A08F1002B08F20029
:100678000030F3000030F4000030F5000A128A154B
:1006880089230A128A1103184A2B4B2BC42B831671
:1006980003132C08F8002D08F9002E08FA000A1296
:1006A8008A15EF240A128A117B0883160313B600F1
:1006B8007A08B5007908B4007808B30036088312C0
:1006C8000313B40083160313350883120313B3000E
:1006D80083160313340883120313B200831603131B
:1006E800330883120313B1000A128A15AE210A12C5
:1006F8008A11831603132E08831203133306031D6E
:10070800932B831603132D08831203133206031D3C
:10071800932B831603132C08831203133106031932
:10072800962B972BA52B213083160313CE00003070
:10073800CF000030A9000030AA000030AB004C2CDC
:100748004C2C831603133308013983120313EF006B
:100758006F0883160313B2002908F0002A08F10075
:100768002B08F2000A128A1578200A128A117008DA
:1007780083160313A9007108AA007208AB00C42BE2
:1007880083160313290883120313E800831603133F
:100798002A0883120313E900831603132B08831214
:1007A8000313EA000A128A1527270A128A118312EC
:1007B8000313680883160313AF0083120313690831
:1007C80083160313B000831203136A0883160313F6
:1007D800B1002C0883120313B700831603132D08E6
:1007E80083120313B800831603132E08831203130E
:1007F800B900831603132F0883120313BA00831654
:100808000313300883120313BB0083160313310844
:1008180083120313BC000A128A11C4200A128A1117
:1008280083120313370883160313A00083120313DC
:10083800380883160313A10083120313390883169B
:100848000313A2000A128A114D240A128A11831670
:1008580003132008A9002108AA002208AB003208C7
:10086800031D372C4C2C2908F0002A08F1002B080E
:10087800F2000A128A1578200A128A117008831663
:100888000313A9007108AA007208AB004C2C4C2C69
:10089800080083160313220821042004031D552C85
:1008A800562C5E2C0030A0008030A1003F30A20002
:1008B800232E232E7230F0003130F1004430F20044
:1008C8002008F3002108F4002208F5000A128A150E
:1008D80089230A128A110318722C732C8A2C22304D
:1008E80083160313CE000030CF00812C0030A00007
:1008F8008030A1007F30A200232EFF30A0007F307F
:10090800A1007F30A200232E232E232E831603134B
:100918002008F0002108F1002208F2004930F30015
:100928003A30F400C430F5000A128A1589230A12F5
:100938008A110318A02CA12CAF2C22308316031384
:10094800CE000030CF000030A0000030A100003001
:10095800A200232E232E831603132008F00021085B
:10096800F1002208F2000030F3000030F4000030FB
:10097800F5000A128A1589230A128A110030031C0D
:10098800013083120313EE006E0883160313A800C8
:100998002808031DD02CE42C2008F0002108F100C1
:1009A8002208F2000A128A1578200A128A117008A1
:1009B80083160313A0007108A1007208A200E42C9A
:1009C800AA3083120313B700B830B8003F30B9001B
:1009D80083160313200883120313BA008316031324
:1009E800210883120313BB00831603132208831202
:1009F8000313BC000A128A11C4200A128A11831236
:100A08000313370883160313A0008312031338084F
:100A180083160313A10083120313390883160313E3
:100A2800A200200883120313D4008316031321089D
:100A380083120313D50083160313220883120313AA
:100A4800D6000A128A111C200A128A118312031373
:100A58005408F8005508F9005608FA000A128A15D1
:100A6800EF240A128A11790883160313A701A7072E
:100A78007808A601A607270883120313B201B20754
:100A880083160313260883120313B101B1070A1250
:100A98008A151C210A128A11831203133108D40003
:100AA8003208D5003308D6008316031320088312B2
:100AB8000313D70083160313210883120313D800E6
:100AC80083160313220883120313D9000A128A1506
:100AD800DC200A128A1183120313540883160313A5
:100AE800A00083120313550883160313A100831271
:100AF8000313560883160313A20020088312031356
:100B0800DE0083160313210883120313DF00831604
:100B18000313220883120313E0000130EE006E086D
:100B2800E1000930E2000030E3000A128A1570245F
:100B38000A128A11831203135E08D4005F08D500D5
:100B48006008D60083160313270883120313D801FD
:100B5800D80783160313260883120313D701D70770
:100B68000A128A155D260A128A1183120313540881
:100B780083160313A0008312031355088316031367
:100B8800A10083120313560883160313A200280832
:100B9800031DCF2D232ED82DD82D0030A300803053
:100BA800A4007F30A500DE2DFF30A3007F30A40015
:100BB8007F30A50022082506031DE82D21082406FC
:100BC800031DE82D20082306031DEB2DEC2DF42D25
:100BD8000030A0000030A1000030A200232E232EF8
:100BE800200883120313B10083160313210883120C
:100BF8000313B20083160313220883120313B300EE
:100C08000030B4008030B5003F30B6000A128A15B3
:100C180095250A128A1183120313310883160313C8
:100C2800A00083120313320883160313A100831252
:100C38000313330883160313A200232E232E080060
:100C48000430831603138500073086008701880166
:100C58008901C101C201C3010A128A159D200A1225
:100C68008A110A168A11F2270A128A110A128A159B
:100C78007B210A128A113A300A128A151B220A129B
:100C88008A110A128A1555200A128A114B2E8312CC
:100C980003130619502E512E532E8716552E8712E0
:100CA800552E83160313C101C201C3010A30430242
:100CB800031C5F2E602E622E7C2E7C2E0A128A1553
:100CC80048210A128A118316031341087007C100CC
:100CD80042080318420A7107C2000130B7003708FA
:100CE800C3070A304302031C7A2E7B2E622E7C2E09
:100CF8000A3083120313AA000030AB0083160313D3
:100D0800420883120313AD01AD078316031341088C
:100D180083120313AC01AC070A128A1539230A128D
:100D28008A11831203132B0883160313C201C20707
:100D3800831203132A0883160313C101C10742084B
:100D4800B8004108B70001300310B80CB70CFF3EDB
:100D5800031DA82E3708C1003808C2004208C00188
:100D6800C0074108BF01BF070330B7003708C300F9
:100D7800C308031DC02EC12EC32E862F862F4308FD
:100D88000A128A15FB200A128A11831203133108EA
:100D980083160313AC00831203133208831603135C
:100DA800AD0083120313330883160313AE0000301B
:100DB800A9002030AA004130AB000A128A11F8229B
:100DC8000A128A11831603132908F8002A08F90061
:100DD8002B08FA000A128A15EF240A128A117908D8
:100DE80083120313AB01AB077808AA01AA0783167D
:100DF80003134308B7003707B93E8400831300087C
:100E080083120313AC00840A0008AD000A128A1585
:100E18005C220A128A11831603134308B8003807A4
:100E2800FE3EB93E8400831203132A088313800010
:100E3800840A2B0880008316031343080A128A15B4
:100E4800FB200A128A118312031331088316031335
:100E5800AC0083120313320883160313AD00831208
:100E68000313330883160313AE000030A9002030A3
:100E7800AA004130AB000A128A11F8220A128A111C
:100E8800831603132908F8002A08F9002B08FA002A
:100E98000A128A15EF240A128A1179088312031399
:100EA800AB01AB077808AA01AA0783160313430806
:100EB800B7003707B93E8400831300088312031371
:100EC800AC00840A0008AD000A128A1539230A12F8
:100ED8008A11831603134308B8003807B93E840003
:100EE800831203132A0883138000840A2B088000C6
:100EF800013083160313C302C308031D842F852FF3
:100F0800C32E862F41300A128A1590200A128A11A0
:100F1800043083160313B7003708C300C308031D42
:100F2800962F972F992FB12FB12F4308B700370766
:100F3800FE3EB93E840083130008303E0A128A152B
:100F480084200A128A11013083160313C302C308CE
:100F5800031DAF2FB02F992FB12FDF300A128A153A
:100F680084200A128A1143300A128A1584200A1230
:100F78008A1100308316031342024B3003194102D1
:100F8800031CC72FC82FCE2F83120313861787146D
:100F980007154B2E00308316031342022330031922
:100FA80041020318D82FD92FEF2F831203130711EB
:100FB8000618DF2FE02F4B2E8613FF30F00000308D
:100FC800F1000A128A15C1200A128A11831203132A
:100FD80087104B2E4B2E831203138618F42FF52FF0
:100FE8004B2E07154B2E4B2E4B2E4B2E4B2EFC2FDC
:100FF800FC2F0A128A11002808308A000408840A83
:1010080082070034003480343F34723431343F3442
:10101800FE3475343E34583463343D3495341D34CD
:101028003C34C534AE343A347934213439349434C8
:10103800803437349334A734353456341534343443
:10104800003400340034003480343F34F034FF344A
:10105800BE34E234A9343E3483347634BE34AE34FC
:101068002B343E343C34C334BD34D23413343D3491
:101078007834D334BB3443347534723472346534C1
:101088006E3474342034543465346D347034003420
:10109E00F00070088312031388000800C030F500BA
:1010AE007508F10000300A128A15E4210A128A1519
:1010BE000800F0007018642868288312031389143E
:1010CE006B288312031389100800F0007018702823
:1010DE007428831203130915772883120313091139
:1010EE00080072087104700403197E287F28822874
:1010FE008030F206822883280800F6007608F50074
:10110E007508F10001300A128A15E4210A128A15B7
:10111E000800F60076088038F5007508F1000030FA
:10112E000A128A15E4210A128A150800831603137F
:10113E001F17831203139F171F13831603139F1179
:10114E001F119F101F109F17831203131F100800EB
:10115E0083160313C401C501C601C701C801C90125
:10116E00CA01CB01CC01CD01CE01CF0183010A1200
:10117E008A11242ECA280730F3007D30F200F20BBC
:10118E00C628F30BC6280130F0020030031CF10311
:10119E00F102FF307106031DD628FF307006031DC5
:1011AE00D928DA28C228DB280800803083120313DE
:1011BE00D6065708C7005808C8005908C900540871
:1011CE00CA005508CB005608CC000A128A11B2216B
:1011DE000A128A15831203134708D4004808D50053
:1011EE004908D600FA28080083120313B8003808FD
:1011FE00B400B501B6013408F0003508F100360828
:10120E00F2008E30B7003708F300F4010A128A1587
:10121E00F5230A128A15700883120313B1007108A0
:10122E00B2007208B3001B29080083120313B60123
:10123E00B21F222923292C29B109B209B10A031997
:10124E00B20AB6010314B60D2C293108F00032088B
:10125E00F100F2018E30B4003408F3003608B50008
:10126E003508F4000A128A15F5230A128A15700839
:10127E0083120313B1007108B2007208B30047293C
:10128E000800F401F501831203139F121F169F111C
:10129E000730F3007D30F200F20B5329F30B532984
:1012AE00831203131F155B291F195E295F295B2902
:1012BE0060291E08F200F3017208F300F2017208B1
:1012CE00F4007308F500831603131E087407F40068
:1012DE0075080318750AF5007508F101F107740811
:1012EE00F001F0077A29080001300A128A156020F1
:1012FE000A128A156230F6006530F500F50B852965
:10130E00F60B85298A293830F5007508F100003072
:10131E000A128A15E4210A128A150630F50075089C
:10132E00F10000300A128A15E4210A128A150C30D7
:10133E00F5007508F10000300A128A15E4210A1230
:10134E008A150A168A11F6270A128A1508008E3097
:10135E0083120313B5003508B600C32901300310FC
:10136E00B40CB30CB20CB10CFF3E031DB629013008
:10137E00B5003508B607C329FF303405031DC8294B
:10138E00C929B529CA293108F0003208F1003308FD
:10139E00F2003608B5003508F300F4010A128A157A
:1013AE00F5230A128A15700883120313B10071080F
:1013BE00B2007208B300E3290800F40074080A12A0
:1013CE008A156C200A128A1571080A128A154F2086
:1013DE000A128A1501300A128A1560200A128A151D
:1013EE000730F3007D30F200F20BFB29F30BFB29E3
:1013FE0000300A128A1560200A128A150D30F30089
:10140E00FB30F200F20B092AF30B092A0E2A0030E8
:10141E000A128A156C200A128A1500300A128A15D1
:10142E004F200A128A150800F8004E2A7808840008
:10143E000A128A1500200A128A150A3A0319282A56
:10144E00292A362A780884000A128A1500200A12E0
:10145E008A150D3A031D342A352A3C2A362A0A12D9
:10146E008A1555200A128A15492A780884000A120C
:10147E008A1500200A128A150A128A1584200A1269
:10148E008A15492A0130F7007708F8074E2A78089E
:10149E0084000A128A1500200A128A150038031DCC
:1014AE00592A5A2A1D2A5B2A0800831203132B0875
:1014BE002A040319632A642A9A2AFD010314FD0DD6
:1014CE00742A01300310AA0DAB0DFF3E031D692ACD
:1014DE000130FC007C08FD07742AAB1F772A782A9E
:1014EE00682A7A2A7A2A2B082D02031D802A2A08B6
:1014FE002C02031C832A842A8B2A2A08AC022B086E
:10150E00031CAD03AD028B2A01300310AB0CAA0CE9
:10151E00FF3E031D8C2A0130FD02031D972A982AD7
:10152E007A2A9A2A9A2A2D08AB01AB072C08AA010F
:10153E00AA07A12A0800720871047004031DA82AC4
:10154E00A92AB92A73088400003083138000840A04
:10155E00003080000030F0000030F1000030F2006A
:10156E00EB2AEB2A72087F39F400F5010130FF00F7
:10157E000310F40DF50DFF0BBF2A730884007408D9
:10158E0083138000840A75088000710D710D013976
:10159E00F400F5017308840074088004840A750849
:1015AE0080047308840082308007840F00080318BB
:1015BE00000AFF00FF307F07800084037208803925
:1015CE003F38F200F113EB2A080083120313B8011F
:1015DE008E30B5003508B700B41FF62AF72A152B42
:1015EE00B109B209B309B409B10A0319B20A031950
:1015FE00B30A0319B40AB8010314B80D152B152B31
:10160E0001300310B40CB30CB20CB10CFF3E031D31
:10161E00082B0130B5003508B707152BFF30340500
:10162E00031D1A2B1B2B072B1C2B3108F000320825
:10163E00F1003308F2003708B5003508F30038081A
:10164E00B6003608F4000A128A15F5230A128A1516
:10165E00700883120313B1007108B2007208B30050
:10166E00382B080083120313AE01AF012B082A0496
:10167E000319422B432B812BB0010314B00D532BB6
:10168E0001300310AA0DAB0DFF3E031D482B013098
:10169E00FC007C08B007532BAB1F562B572B472B48
:1016AE00592B592B01300310AE0DAF0DFF3E031D0C
:1016BE005A2B2B082D02031D662B2A082C02031C05
:1016CE00692B6A2B722B2A08AC022B08031CAD0364
:1016DE00AD022E14722B01300310AB0CAA0CFF3E80
:1016EE00031D732B0130B002031D7E2B7F2B592B54
:1016FE00812B812B2F08AB01AB072E08AA01AA075D
:10170E00882B0800F21F8C2B8D2BB32B0030F6008C
:10171E000030F7008030F8007009F9007109FA0006
:10172E007209FB00F90A0319FA0A0319FB0A790870
:10173E00F6077A0803187A0FA52BA62BF7077B0856
:10174E0003187B0FAB2BAC2BF8077608F00077084D
:10175E00F1007808F200B32BF51FB62BB72BDD2B5B
:10176E000030F6000030F7008030F8007309F90001
:10177E007409FA007509FB00F90A0319FA0A03192C
:10178E00FB0A7908F6077A0803187A0FCF2BD02BAD
:10179E00F7077B0803187B0FD52BD62BF807760897
:1017AE00F3007708F4007808F500DD2B8030F206A0
:1017BE008030F50675087202031DEB2B740871025A
:1017CE00031DEB2B730870020318EE2BEF2BF12B7E
:1017DE000310F42B0314F42BF42B08007308031DD1
:1017EE00F92B012C720871047004031DFF2B002CC1
:1017FE00172C012C0030F0000030F1000030F20008
:10180E006F2C6F2C172C0130F5007508F307013083
:10181E000310F20CF10CF00CFF3E031D0F2C172CD5
:10182E00FE307205031D1C2C1D2C0A2C352C352C5C
:10183E000130F5007508F3070130F007003003188A
:10184E000130F107003003180130F20701300310A8
:10185E00F20CF10CF00CFF3E031D2E2CFF30720526
:10186E00031D3A2C3B2C1F2C482C482C0130F30224
:10187E0001300310F00DF10DF20DFF3E031D402C53
:10188E00482CF11F4B2C4C2C3D2C73184F2C502CEC
:10189E00562CFF30F0057F30F105FF30F2050310B6
:1018AE00F30C7308F500F601F70110300310F50D77
:1018BE00F60DF70DFF3E031D5D2C7508F00476083E
:1018CE00F1047708F2047408031D6E2C6F2CF217C6
:1018DE000800033083120313E4006408F00062086A
:1018EE000A128A1104200A128A1583120313610741
:1018FE0084000A128A1500200A128A15E5000A12BF
:10190E008A1500200A128A15E6000A128A1500208E
:10191E000A128A15E700E02C0330E4006408F00098
:10192E00FF30E2070318E30AFF30E30762080A12EA
:10193E008A1104200A128A15831203136107840088
:10194E000A128A1500200A128A15C7000A128A1571
:10195E0000200A128A15C8000A128A1500200A12DF
:10196E008A15C9006508B7006608B8006708B9008F
:10197E005E08BA005F08BB006008BC000A128A113C
:10198E00C4200A128A15831203133708CA003808B6
:10199E00CB003908CC000A128A11B2210A128A151C
:1019AE00831203134708E5004808E6004908E700DC
:1019BE00E02C63086204031DE52CE62C932CE72C27
:1019CE006508DE006608DF006708E000EE2C080000
:1019DE00780883120313A0007908A1007A08A200E8
:1019EE000310210D220DA3002308A900A908031D31
:1019FE00012D022D0C2D0030FB000030FA000030BE
:101A0E00F9000030F800942D942D7808A000790884
:101A1E00A1007A08A20017300310A20CA10CA00C92
:101A2E00FF3E031D132D2008A3002308A400F91761
:101A3E00FF30F805FF30F9050030FA057808A500EB
:101A4E007908A6007A08A700A8018E30A902A91F5E
:101A5E00312D322D572D2908803A8F3E0318382DFF
:101A6E00392D442D0030FB000030FA000030F90013
:101A7E000030F800942D942D442D01300310A80C45
:101A8E00A70CA60CA50CFF3E031D452D0130A00092
:101A9E002008A907031D542D552D442D7B2D7B2D7C
:101AAE0018302902031C5C2D5D2D742D0030FB00B7
:101ABE000030FA000030F9000030F800942D942D1B
:101ACE00742D0130A0000310A50DA60DA70DA80DB5
:101ADE00A00B6A2D0130A902742DA908031D782DC3
:101AEE00792D682D7B2D7B2D2408031D7F2D8B2DAD
:101AFE00A509A609A709A809A50A0319A60A031983
:101B0E00A70A0319A80A8B2D2808FB002708FA003C
:101B1E002608F9002508F800942D080083120313F7
:101B2E003408B7003508B8003608B9000310380D70
:101B3E00390DBA003A08BF00BF08031DA72DA82D06
:101B4E00B02D0030B1000030B2000030B3005C2E7A
:101B5E005C2E3108B7003208B8003308B900031004
:101B6E00380D390DBA003A08C000C008031DC02D4B
:101B7E00C12DC92D0030B1000030B2000030B300CD
:101B8E005C2E5C2E0030BC000030BD000030BE006C
:101B9E0089304007B7003708BF023408B700350850
:101BAE00B8003608B90010300310B90CB80CB70CD9
:101BBE00FF3E031DDB2D3708BA003A08C00031087E
:101BCE00B7003208B8003308B90010300310B90C52
:101BDE00B80CB70CFF3E031DED2D3708BA003A08BE
:101BEE00C0068030B7003708C005B517FF30B40502
:101BFE00FF30B5050030B605B217FF30B105FF3026
:101C0E00B2050030B3051830B7003708BB000F2EF1
:101C1E0001300310BC0DBD0DBE0DFF3E031D102E79
:101C2E0033083602031D212E32083502031D212EE4
:101C3E0031083402031C242E252E312E3108B40215
:101C4E003208031C320FB5023308031C330AB602E6
:101C5E003C14312E01300310B40DB50DB60DFF3E00
:101C6E00031D322E0130BB02031D3E2E3F2E0F2EC2
:101C7E00402E3C08F0003D08F1003E08F2003F08FF
:101C8E00B7003708F3004008B8003808F4000A120D
:101C9E008A15F5230A128A15700883120313B100F0
:101CAE007108B2007208B3005C2E08008312031391
:101CBE00560855045404031D652E662E6E2E0030F4
:101CCE00D4000030D5000030D600262F262F56081F
:101CDE007F39D900DA010130FF000310D90DDA0D7A
:101CEE00FF0B742E5908D7070318D80A5A08D807BD
:101CFE00550D550D0139D900DA015908D7070318CA
:101D0E00D80A5A08D807D81F8D2E8E2E9F2E223015
:101D1E0083160313CE000030CF000030831203135E
:101D2E00D4000030D5000030D600262F262F252FC8
:101D3E005808803AFF0081307F02031DA82E003024
:101D4E005702031CAB2EAC2E072F22308316031323
:101D5E00CE000030CF00831203135408F000550854
:101D6E00F1005608F2000030F3000030F4000030AD
:101D7E00F5000A128A1589230A128A150318C82E2D
:101D8E00C92EFB2ED42ED42E003083120313DB006B
:101D9E008030DC007F30DD00DD2EFF308312031338
:101DAE00DB007F30DC007F30DD00DD2E5B08F000D5
:101DBE005C08F1005D08F2000A128A1578200A12FA
:101DCE008A15700883120313D4007108D5007208A7
:101DDE00D600262F262F252FFB2E0030D400803044
:101DEE00D5007F30D600262FFF3083120313D40088
:101DFE007F30D5007F30D600262F262F262F252F79
:101E0E00831203135808DA005708D9000130FF0077
:101E1E005A0DDA0CD90CFF0B0F2F560859068039C4
:101E2E005906D60057080139D900D90CD90C5508D6
:101E3E0059067F395906D500252F252F262F080044
:101E4E00831203136808F0006908F1006A08F200B3
:101E5E000030F3000030F4000030F5000A128A154D
:101E6E0089230A128A1503183D2F3E2F4E2F21303B
:101E7E0083160313CE000030CF00003083120313FD
:101E8E00E8000030E9000030EA00FF2FFF2F831238
:101E9E0003136A0869046804031D562F572F672F12
:101EAE00223083160313CE000030CF000030831291
:101EBE000313E8000030E9000030EA00FF2FFF2F87
:101ECE000030C7008030C800BF30C9000030B700F6
:101EDE000030B8004030B9006C30EB006B08F300F6
:101EEE006808F0006908F1006A08F2000A128A1503
:101EFE00A2220A128A15700883120313BA007108FF
:101F0E00BB007208BC000A128A11C4200A128A157C
:101F1E00831203133708CA003808CB003908CC00E7
:101F2E000A128A11B2210A128A1583120313470864
:101F3E00E8004808E9004908EA00FF30EC070318FA
:101F4E00ED0AFF30ED076808DE006908DF006A0859
:101F5E00E0001F30EB006B08E1000830E2000030BB
:101F6E00E3000A128A1570240A128A1583120313CB
:101F7E005E08E8005F08E9006008EA006808C7002C
:101F8E006908C8006A08C9007230B7003130B8005D
:101F9E003F30B9006D08B201B2076C08B101B1074C
:101FAE000A128A151C210A128A158312031331088C
:101FBE00BA003208BB003308BC000A128A11C420D2
:101FCE000A128A15831203133708CA003808CB0089
:101FDE003908CC000A128A11B2210A128A1583120C
:101FEE0003134708E8004808E9004908EA00FF2FF4
:021FFE000800D9
:102FE400831203131F140800F1010314F10D0030C0
:0C2FF4000A128A15E4210A168A1108004E
:02400E0032FF7F
:00000001FF
